{
  "_format": "hh-sol-artifact-1",
  "contractName": "DegenGamingToken",
  "sourceName": "contracts/DegenGamingToken.sol",
  "abi": [
    {
      "inputs": [],
      "stateMutability": "nonpayable",
      "type": "constructor"
    },
    {
      "inputs": [
        {
          "internalType": "address",
          "name": "spender",
          "type": "address"
        },
        {
          "internalType": "uint256",
          "name": "allowance",
          "type": "uint256"
        },
        {
          "internalType": "uint256",
          "name": "needed",
          "type": "uint256"
        }
      ],
      "name": "ERC20InsufficientAllowance",
      "type": "error"
    },
    {
      "inputs": [
        {
          "internalType": "address",
          "name": "sender",
          "type": "address"
        },
        {
          "internalType": "uint256",
          "name": "balance",
          "type": "uint256"
        },
        {
          "internalType": "uint256",
          "name": "needed",
          "type": "uint256"
        }
      ],
      "name": "ERC20InsufficientBalance",
      "type": "error"
    },
    {
      "inputs": [
        {
          "internalType": "address",
          "name": "approver",
          "type": "address"
        }
      ],
      "name": "ERC20InvalidApprover",
      "type": "error"
    },
    {
      "inputs": [
        {
          "internalType": "address",
          "name": "receiver",
          "type": "address"
        }
      ],
      "name": "ERC20InvalidReceiver",
      "type": "error"
    },
    {
      "inputs": [
        {
          "internalType": "address",
          "name": "sender",
          "type": "address"
        }
      ],
      "name": "ERC20InvalidSender",
      "type": "error"
    },
    {
      "inputs": [
        {
          "internalType": "address",
          "name": "spender",
          "type": "address"
        }
      ],
      "name": "ERC20InvalidSpender",
      "type": "error"
    },
    {
      "inputs": [
        {
          "internalType": "address",
          "name": "owner",
          "type": "address"
        }
      ],
      "name": "OwnableInvalidOwner",
      "type": "error"
    },
    {
      "inputs": [
        {
          "internalType": "address",
          "name": "account",
          "type": "address"
        }
      ],
      "name": "OwnableUnauthorizedAccount",
      "type": "error"
    },
    {
      "anonymous": false,
      "inputs": [
        {
          "indexed": true,
          "internalType": "address",
          "name": "owner",
          "type": "address"
        },
        {
          "indexed": true,
          "internalType": "address",
          "name": "spender",
          "type": "address"
        },
        {
          "indexed": false,
          "internalType": "uint256",
          "name": "value",
          "type": "uint256"
        }
      ],
      "name": "Approval",
      "type": "event"
    },
    {
      "anonymous": false,
      "inputs": [
        {
          "indexed": true,
          "internalType": "address",
          "name": "previousOwner",
          "type": "address"
        },
        {
          "indexed": true,
          "internalType": "address",
          "name": "newOwner",
          "type": "address"
        }
      ],
      "name": "OwnershipTransferred",
      "type": "event"
    },
    {
      "anonymous": false,
      "inputs": [
        {
          "indexed": true,
          "internalType": "address",
          "name": "from",
          "type": "address"
        },
        {
          "indexed": true,
          "internalType": "address",
          "name": "to",
          "type": "address"
        },
        {
          "indexed": false,
          "internalType": "uint256",
          "name": "value",
          "type": "uint256"
        }
      ],
      "name": "Transfer",
      "type": "event"
    },
    {
      "inputs": [
        {
          "internalType": "address",
          "name": "",
          "type": "address"
        },
        {
          "internalType": "uint256",
          "name": "",
          "type": "uint256"
        }
      ],
      "name": "addressToRewards",
      "outputs": [
        {
          "internalType": "uint256",
          "name": "",
          "type": "uint256"
        }
      ],
      "stateMutability": "view",
      "type": "function"
    },
    {
      "inputs": [
        {
          "internalType": "address",
          "name": "owner",
          "type": "address"
        },
        {
          "internalType": "address",
          "name": "spender",
          "type": "address"
        }
      ],
      "name": "allowance",
      "outputs": [
        {
          "internalType": "uint256",
          "name": "",
          "type": "uint256"
        }
      ],
      "stateMutability": "view",
      "type": "function"
    },
    {
      "inputs": [
        {
          "internalType": "address",
          "name": "spender",
          "type": "address"
        },
        {
          "internalType": "uint256",
          "name": "value",
          "type": "uint256"
        }
      ],
      "name": "approve",
      "outputs": [
        {
          "internalType": "bool",
          "name": "",
          "type": "bool"
        }
      ],
      "stateMutability": "nonpayable",
      "type": "function"
    },
    {
      "inputs": [
        {
          "internalType": "address",
          "name": "account",
          "type": "address"
        }
      ],
      "name": "balanceOf",
      "outputs": [
        {
          "internalType": "uint256",
          "name": "",
          "type": "uint256"
        }
      ],
      "stateMutability": "view",
      "type": "function"
    },
    {
      "inputs": [
        {
          "internalType": "uint256",
          "name": "value",
          "type": "uint256"
        }
      ],
      "name": "burn",
      "outputs": [],
      "stateMutability": "nonpayable",
      "type": "function"
    },
    {
      "inputs": [
        {
          "internalType": "address",
          "name": "account",
          "type": "address"
        },
        {
          "internalType": "uint256",
          "name": "value",
          "type": "uint256"
        }
      ],
      "name": "burnFrom",
      "outputs": [],
      "stateMutability": "nonpayable",
      "type": "function"
    },
    {
      "inputs": [
        {
          "internalType": "uint256",
          "name": "_value",
          "type": "uint256"
        }
      ],
      "name": "burnToken",
      "outputs": [],
      "stateMutability": "nonpayable",
      "type": "function"
    },
    {
      "inputs": [],
      "name": "checkBalance",
      "outputs": [
        {
          "internalType": "uint256",
          "name": "",
          "type": "uint256"
        }
      ],
      "stateMutability": "view",
      "type": "function"
    },
    {
      "inputs": [],
      "name": "decimals",
      "outputs": [
        {
          "internalType": "uint8",
          "name": "",
          "type": "uint8"
        }
      ],
      "stateMutability": "view",
      "type": "function"
    },
    {
      "inputs": [
        {
          "internalType": "address",
          "name": "_to",
          "type": "address"
        },
        {
          "internalType": "uint256",
          "name": "_value",
          "type": "uint256"
        }
      ],
      "name": "mintToken",
      "outputs": [],
      "stateMutability": "nonpayable",
      "type": "function"
    },
    {
      "inputs": [],
      "name": "name",
      "outputs": [
        {
          "internalType": "string",
          "name": "",
          "type": "string"
        }
      ],
      "stateMutability": "view",
      "type": "function"
    },
    {
      "inputs": [
        {
          "internalType": "uint256",
          "name": "",
          "type": "uint256"
        }
      ],
      "name": "opitionToPrice",
      "outputs": [
        {
          "internalType": "uint256",
          "name": "",
          "type": "uint256"
        }
      ],
      "stateMutability": "view",
      "type": "function"
    },
    {
      "inputs": [],
      "name": "owner",
      "outputs": [
        {
          "internalType": "address",
          "name": "",
          "type": "address"
        }
      ],
      "stateMutability": "view",
      "type": "function"
    },
    {
      "inputs": [
        {
          "internalType": "uint256",
          "name": "_optionNumber",
          "type": "uint256"
        }
      ],
      "name": "redeemAwards",
      "outputs": [],
      "stateMutability": "nonpayable",
      "type": "function"
    },
    {
      "inputs": [],
      "name": "renounceOwnership",
      "outputs": [],
      "stateMutability": "nonpayable",
      "type": "function"
    },
    {
      "inputs": [
        {
          "internalType": "address",
          "name": "_player",
          "type": "address"
        }
      ],
      "name": "showRedeemedRewards",
      "outputs": [
        {
          "internalType": "uint256[]",
          "name": "",
          "type": "uint256[]"
        }
      ],
      "stateMutability": "view",
      "type": "function"
    },
    {
      "inputs": [],
      "name": "showRewards",
      "outputs": [
        {
          "internalType": "string",
          "name": "",
          "type": "string"
        }
      ],
      "stateMutability": "pure",
      "type": "function"
    },
    {
      "inputs": [],
      "name": "symbol",
      "outputs": [
        {
          "internalType": "string",
          "name": "",
          "type": "string"
        }
      ],
      "stateMutability": "view",
      "type": "function"
    },
    {
      "inputs": [],
      "name": "totalSupply",
      "outputs": [
        {
          "internalType": "uint256",
          "name": "",
          "type": "uint256"
        }
      ],
      "stateMutability": "view",
      "type": "function"
    },
    {
      "inputs": [
        {
          "internalType": "address",
          "name": "to",
          "type": "address"
        },
        {
          "internalType": "uint256",
          "name": "value",
          "type": "uint256"
        }
      ],
      "name": "transfer",
      "outputs": [
        {
          "internalType": "bool",
          "name": "",
          "type": "bool"
        }
      ],
      "stateMutability": "nonpayable",
      "type": "function"
    },
    {
      "inputs": [
        {
          "internalType": "address",
          "name": "from",
          "type": "address"
        },
        {
          "internalType": "address",
          "name": "to",
          "type": "address"
        },
        {
          "internalType": "uint256",
          "name": "value",
          "type": "uint256"
        }
      ],
      "name": "transferFrom",
      "outputs": [
        {
          "internalType": "bool",
          "name": "",
          "type": "bool"
        }
      ],
      "stateMutability": "nonpayable",
      "type": "function"
    },
    {
      "inputs": [
        {
          "internalType": "address",
          "name": "newOwner",
          "type": "address"
        }
      ],
      "name": "transferOwnership",
      "outputs": [],
      "stateMutability": "nonpayable",
      "type": "function"
    },
    {
      "inputs": [
        {
          "internalType": "address",
          "name": "_to",
          "type": "address"
        },
        {
          "internalType": "uint256",
          "name": "_value",
          "type": "uint256"
        }
      ],
      "name": "transferToken",
      "outputs": [],
      "stateMutability": "nonpayable",
      "type": "function"
    }
  ],
  "bytecode": "0x60806040523480156200001157600080fd5b506040518060400160405280601081526020017f446567656e47616d696e67546f6b656e000000000000000000000000000000008152506040518060400160405280600381526020017f444754000000000000000000000000000000000000000000000000000000000081525033600073ffffffffffffffffffffffffffffffffffffffff168173ffffffffffffffffffffffffffffffffffffffff1603620000f45760006040517f1e4fbdf7000000000000000000000000000000000000000000000000000000008152600401620000eb91906200028a565b60405180910390fd5b62000105816200018160201b60201c565b50816004908162000117919062000521565b50806005908162000129919062000521565b505050603260066000600181526020019081526020016000208190555060c860066000600281526020019081526020016000208190555061138860066000600381526020019081526020016000208190555062000608565b60008060009054906101000a900473ffffffffffffffffffffffffffffffffffffffff169050816000806101000a81548173ffffffffffffffffffffffffffffffffffffffff021916908373ffffffffffffffffffffffffffffffffffffffff1602179055508173ffffffffffffffffffffffffffffffffffffffff168173ffffffffffffffffffffffffffffffffffffffff167f8be0079c531659141344cd1fd0a4f28419497f9722a3daafe3b4186f6b6457e060405160405180910390a35050565b600073ffffffffffffffffffffffffffffffffffffffff82169050919050565b6000620002728262000245565b9050919050565b620002848162000265565b82525050565b6000602082019050620002a1600083018462000279565b92915050565b600081519050919050565b7f4e487b7100000000000000000000000000000000000000000000000000000000600052604160045260246000fd5b7f4e487b7100000000000000000000000000000000000000000000000000000000600052602260045260246000fd5b600060028204905060018216806200032957607f821691505b6020821081036200033f576200033e620002e1565b5b50919050565b60008190508160005260206000209050919050565b60006020601f8301049050919050565b600082821b905092915050565b600060088302620003a97fffffffffffffffffffffffffffffffffffffffffffffffffffffffffffffffff826200036a565b620003b586836200036a565b95508019841693508086168417925050509392505050565b6000819050919050565b6000819050919050565b600062000402620003fc620003f684620003cd565b620003d7565b620003cd565b9050919050565b6000819050919050565b6200041e83620003e1565b620004366200042d8262000409565b84845462000377565b825550505050565b600090565b6200044d6200043e565b6200045a81848462000413565b505050565b5b8181101562000482576200047660008262000443565b60018101905062000460565b5050565b601f821115620004d1576200049b8162000345565b620004a6846200035a565b81016020851015620004b6578190505b620004ce620004c5856200035a565b8301826200045f565b50505b505050565b600082821c905092915050565b6000620004f660001984600802620004d6565b1980831691505092915050565b6000620005118383620004e3565b9150826002028217905092915050565b6200052c82620002a7565b67ffffffffffffffff811115620005485762000547620002b2565b5b62000554825462000310565b6200056182828562000486565b600060209050601f83116001811462000599576000841562000584578287015190505b62000590858262000503565b86555062000600565b601f198416620005a98662000345565b60005b82811015620005d357848901518255600182019150602085019450602081019050620005ac565b86831015620005f35784890151620005ef601f891682620004e3565b8355505b6001600288020188555050505b505050505050565b611ab880620006186000396000f3fe608060405234801561001057600080fd5b506004361061014c5760003560e01c8063715018a6116100c3578063a9059cbb1161007c578063a9059cbb1461039d578063aa663ff5146103cd578063c71daccb146103e9578063dd62ed3e14610407578063f2fde38b14610437578063f6400a46146104535761014c565b8063715018a61461030357806379c650681461030d57806379cc6790146103295780637b47ec1a146103455780638da5cb5b1461036157806395d89b411461037f5761014c565b806323b872dd1161011557806323b872dd146102095780632417579614610239578063313ce5671461026957806342966c681461028757806347b04490146102a357806370a08231146102d35761014c565b80625033411461015157806306fdde0314610181578063095ea7b31461019f5780631072cbea146101cf57806318160ddd146101eb575b600080fd5b61016b600480360381019061016691906113d8565b610471565b6040516101789190611414565b60405180910390f35b610189610489565b60405161019691906114bf565b60405180910390f35b6101b960048036038101906101b4919061153f565b61051b565b6040516101c6919061159a565b60405180910390f35b6101e960048036038101906101e4919061153f565b61053e565b005b6101f36105a4565b6040516102009190611414565b60405180910390f35b610223600480360381019061021e91906115b5565b6105ae565b604051610230919061159a565b60405180910390f35b610253600480360381019061024e9190611608565b6105dd565b60405161026091906116f3565b60405180910390f35b610271610674565b60405161027e9190611731565b60405180910390f35b6102a1600480360381019061029c91906113d8565b61067d565b005b6102bd60048036038101906102b8919061153f565b610691565b6040516102ca9190611414565b60405180910390f35b6102ed60048036038101906102e89190611608565b6106c2565b6040516102fa9190611414565b60405180910390f35b61030b61070b565b005b6103276004803603810190610322919061153f565b61071f565b005b610343600480360381019061033e919061153f565b610735565b005b61035f600480360381019061035a91906113d8565b610755565b005b610369610761565b604051610376919061175b565b60405180910390f35b61038761078a565b60405161039491906114bf565b60405180910390f35b6103b760048036038101906103b2919061153f565b61081c565b6040516103c4919061159a565b60405180910390f35b6103e760048036038101906103e291906113d8565b61083f565b005b6103f1610978565b6040516103fe9190611414565b60405180910390f35b610421600480360381019061041c9190611776565b610988565b60405161042e9190611414565b60405180910390f35b610451600480360381019061044c9190611608565b610a0f565b005b61045b610a95565b60405161046891906114bf565b60405180910390f35b60066020528060005260406000206000915090505481565b606060048054610498906117e5565b80601f01602080910402602001604051908101604052809291908181526020018280546104c4906117e5565b80156105115780601f106104e657610100808354040283529160200191610511565b820191906000526020600020905b8154815290600101906020018083116104f457829003601f168201915b5050505050905090565b600080610526610ac4565b9050610533818585610acc565b600191505092915050565b80610548336106c2565b1015610589576040517f08c379a000000000000000000000000000000000000000000000000000000000815260040161058090611862565b60405180910390fd5b610593338261051b565b5061059f3383836105ae565b505050565b6000600354905090565b6000806105b9610ac4565b90506105c6858285610ade565b6105d1858585610b72565b60019150509392505050565b6060600760008373ffffffffffffffffffffffffffffffffffffffff1673ffffffffffffffffffffffffffffffffffffffff16815260200190815260200160002080548060200260200160405190810160405280929190818152602001828054801561066857602002820191906000526020600020905b815481526020019060010190808311610654575b50505050509050919050565b60006012905090565b61068e610688610ac4565b82610c66565b50565b600760205281600052604060002081815481106106ad57600080fd5b90600052602060002001600091509150505481565b6000600160008373ffffffffffffffffffffffffffffffffffffffff1673ffffffffffffffffffffffffffffffffffffffff168152602001908152602001600020549050919050565b610713610ce8565b61071d6000610d6f565b565b610727610ce8565b6107318282610e33565b5050565b61074782610741610ac4565b83610ade565b6107518282610c66565b5050565b61075e8161067d565b50565b60008060009054906101000a900473ffffffffffffffffffffffffffffffffffffffff16905090565b606060058054610799906117e5565b80601f01602080910402602001604051908101604052809291908181526020018280546107c5906117e5565b80156108125780601f106107e757610100808354040283529160200191610812565b820191906000526020600020905b8154815290600101906020018083116107f557829003601f168201915b5050505050905090565b600080610827610ac4565b9050610834818585610b72565b600191505092915050565b6000600660008381526020019081526020016000205403610895576040517f08c379a000000000000000000000000000000000000000000000000000000000815260040161088c906118ce565b60405180910390fd5b60066000828152602001908152602001600020546108b2336106c2565b10156108f3576040517f08c379a00000000000000000000000000000000000000000000000000000000081526004016108ea9061193a565b60405180910390fd5b61090f600660008381526020019081526020016000205461067d565b600760003373ffffffffffffffffffffffffffffffffffffffff1673ffffffffffffffffffffffffffffffffffffffff16815260200190815260200160002081908060018154018082558091505060019003906000526020600020016000909190919091505550565b6000610983336106c2565b905090565b6000600260008473ffffffffffffffffffffffffffffffffffffffff1673ffffffffffffffffffffffffffffffffffffffff16815260200190815260200160002060008373ffffffffffffffffffffffffffffffffffffffff1673ffffffffffffffffffffffffffffffffffffffff16815260200190815260200160002054905092915050565b610a17610ce8565b600073ffffffffffffffffffffffffffffffffffffffff168173ffffffffffffffffffffffffffffffffffffffff1603610a895760006040517f1e4fbdf7000000000000000000000000000000000000000000000000000000008152600401610a80919061175b565b60405180910390fd5b610a9281610d6f565b50565b606060006040518060800160405280605f8152602001611a24605f91399050610abd81610eb5565b8091505090565b600033905090565b610ad98383836001610f4e565b505050565b6000610aea8484610988565b90507fffffffffffffffffffffffffffffffffffffffffffffffffffffffffffffffff8114610b6c5781811015610b5c578281836040517ffb8f41b2000000000000000000000000000000000000000000000000000000008152600401610b539392919061195a565b60405180910390fd5b610b6b84848484036000610f4e565b5b50505050565b600073ffffffffffffffffffffffffffffffffffffffff168373ffffffffffffffffffffffffffffffffffffffff1603610be45760006040517f96c6fd1e000000000000000000000000000000000000000000000000000000008152600401610bdb919061175b565b60405180910390fd5b600073ffffffffffffffffffffffffffffffffffffffff168273ffffffffffffffffffffffffffffffffffffffff1603610c565760006040517fec442f05000000000000000000000000000000000000000000000000000000008152600401610c4d919061175b565b60405180910390fd5b610c61838383611125565b505050565b600073ffffffffffffffffffffffffffffffffffffffff168273ffffffffffffffffffffffffffffffffffffffff1603610cd85760006040517f96c6fd1e000000000000000000000000000000000000000000000000000000008152600401610ccf919061175b565b60405180910390fd5b610ce482600083611125565b5050565b610cf0610ac4565b73ffffffffffffffffffffffffffffffffffffffff16610d0e610761565b73ffffffffffffffffffffffffffffffffffffffff1614610d6d57610d31610ac4565b6040517f118cdaa7000000000000000000000000000000000000000000000000000000008152600401610d64919061175b565b60405180910390fd5b565b60008060009054906101000a900473ffffffffffffffffffffffffffffffffffffffff169050816000806101000a81548173ffffffffffffffffffffffffffffffffffffffff021916908373ffffffffffffffffffffffffffffffffffffffff1602179055508173ffffffffffffffffffffffffffffffffffffffff168173ffffffffffffffffffffffffffffffffffffffff167f8be0079c531659141344cd1fd0a4f28419497f9722a3daafe3b4186f6b6457e060405160405180910390a35050565b600073ffffffffffffffffffffffffffffffffffffffff168273ffffffffffffffffffffffffffffffffffffffff1603610ea55760006040517fec442f05000000000000000000000000000000000000000000000000000000008152600401610e9c919061175b565b60405180910390fd5b610eb160008383611125565b5050565b610f4b81604051602401610ec991906114bf565b6040516020818303038152906040527f41304fac000000000000000000000000000000000000000000000000000000007bffffffffffffffffffffffffffffffffffffffffffffffffffffffff19166020820180517bffffffffffffffffffffffffffffffffffffffffffffffffffffffff838183161783525050505061134d565b50565b600073ffffffffffffffffffffffffffffffffffffffff168473ffffffffffffffffffffffffffffffffffffffff1603610fc05760006040517fe602df05000000000000000000000000000000000000000000000000000000008152600401610fb7919061175b565b60405180910390fd5b600073ffffffffffffffffffffffffffffffffffffffff168373ffffffffffffffffffffffffffffffffffffffff16036110325760006040517f94280d62000000000000000000000000000000000000000000000000000000008152600401611029919061175b565b60405180910390fd5b81600260008673ffffffffffffffffffffffffffffffffffffffff1673ffffffffffffffffffffffffffffffffffffffff16815260200190815260200160002060008573ffffffffffffffffffffffffffffffffffffffff1673ffffffffffffffffffffffffffffffffffffffff16815260200190815260200160002081905550801561111f578273ffffffffffffffffffffffffffffffffffffffff168473ffffffffffffffffffffffffffffffffffffffff167f8c5be1e5ebec7d5bd14f71427d1e84f3dd0314c0f7b2291e5b200ac8c7c3b925846040516111169190611414565b60405180910390a35b50505050565b600073ffffffffffffffffffffffffffffffffffffffff168373ffffffffffffffffffffffffffffffffffffffff160361117757806003600082825461116b91906119c0565b9250508190555061124c565b6000600160008573ffffffffffffffffffffffffffffffffffffffff1673ffffffffffffffffffffffffffffffffffffffff16815260200190815260200160002054905081811015611204578381836040517fe450d38c0000000000000000000000000000000000000000000000000000000081526004016111fb9392919061195a565b60405180910390fd5b818103600160008673ffffffffffffffffffffffffffffffffffffffff1673ffffffffffffffffffffffffffffffffffffffff16815260200190815260200160002081905550505b600073ffffffffffffffffffffffffffffffffffffffff168273ffffffffffffffffffffffffffffffffffffffff160361129557806003600082825403925050819055506112e3565b80600160008473ffffffffffffffffffffffffffffffffffffffff1673ffffffffffffffffffffffffffffffffffffffff168152602001908152602001600020600082825401925050819055505b8173ffffffffffffffffffffffffffffffffffffffff168373ffffffffffffffffffffffffffffffffffffffff167fddf252ad1be2c89b69c2b068fc378daa952ba7f163c4a11628f55a4df523b3ef836040516113409190611414565b60405180910390a3505050565b6113648161135c611367611388565b63ffffffff16565b50565b60006a636f6e736f6c652e6c6f679050600080835160208501845afa505050565b611393819050919050565b61139b6119f4565b565b600080fd5b6000819050919050565b6113b5816113a2565b81146113c057600080fd5b50565b6000813590506113d2816113ac565b92915050565b6000602082840312156113ee576113ed61139d565b5b60006113fc848285016113c3565b91505092915050565b61140e816113a2565b82525050565b60006020820190506114296000830184611405565b92915050565b600081519050919050565b600082825260208201905092915050565b60005b8381101561146957808201518184015260208101905061144e565b60008484015250505050565b6000601f19601f8301169050919050565b60006114918261142f565b61149b818561143a565b93506114ab81856020860161144b565b6114b481611475565b840191505092915050565b600060208201905081810360008301526114d98184611486565b905092915050565b600073ffffffffffffffffffffffffffffffffffffffff82169050919050565b600061150c826114e1565b9050919050565b61151c81611501565b811461152757600080fd5b50565b60008135905061153981611513565b92915050565b600080604083850312156115565761155561139d565b5b60006115648582860161152a565b9250506020611575858286016113c3565b9150509250929050565b60008115159050919050565b6115948161157f565b82525050565b60006020820190506115af600083018461158b565b92915050565b6000806000606084860312156115ce576115cd61139d565b5b60006115dc8682870161152a565b93505060206115ed8682870161152a565b92505060406115fe868287016113c3565b9150509250925092565b60006020828403121561161e5761161d61139d565b5b600061162c8482850161152a565b91505092915050565b600081519050919050565b600082825260208201905092915050565b6000819050602082019050919050565b61166a816113a2565b82525050565b600061167c8383611661565b60208301905092915050565b6000602082019050919050565b60006116a082611635565b6116aa8185611640565b93506116b583611651565b8060005b838110156116e65781516116cd8882611670565b97506116d883611688565b9250506001810190506116b9565b5085935050505092915050565b6000602082019050818103600083015261170d8184611695565b905092915050565b600060ff82169050919050565b61172b81611715565b82525050565b60006020820190506117466000830184611722565b92915050565b61175581611501565b82525050565b6000602082019050611770600083018461174c565b92915050565b6000806040838503121561178d5761178c61139d565b5b600061179b8582860161152a565b92505060206117ac8582860161152a565b9150509250929050565b7f4e487b7100000000000000000000000000000000000000000000000000000000600052602260045260246000fd5b600060028204905060018216806117fd57607f821691505b6020821081036118105761180f6117b6565b5b50919050565b7f596f7520646f6e2774206861766520656e6f7567682044475473000000000000600082015250565b600061184c601a8361143a565b915061185782611816565b602082019050919050565b6000602082019050818103600083015261187b8161183f565b9050919050565b7f506c656173652073656c65637420612076616c6964206f7074696f6e00000000600082015250565b60006118b8601c8361143a565b91506118c382611882565b602082019050919050565b600060208201905081810360008301526118e7816118ab565b9050919050565b7f596f7520646f6e2774206861766520656e676f75682044475473000000000000600082015250565b6000611924601a8361143a565b915061192f826118ee565b602082019050919050565b6000602082019050818103600083015261195381611917565b9050919050565b600060608201905061196f600083018661174c565b61197c6020830185611405565b6119896040830184611405565b949350505050565b7f4e487b7100000000000000000000000000000000000000000000000000000000600052601160045260246000fd5b60006119cb826113a2565b91506119d6836113a2565b92508282019050808211156119ee576119ed611991565b5b92915050565b7f4e487b7100000000000000000000000000000000000000000000000000000000600052605160045260246000fdfe313a20426173696320506f77657220426f6f7374202d2035302044475473200a323a20416476616e63652041726d6f7220536574202d2032303020444754730a333a204c6567656e6461727920576561706f6e202d20353030302044475473a2646970667358221220f02901418689f48c2549e6c5025fa56b9a0dd8be76bde62d79925e53a56acf8364736f6c63430008180033",
  "linkReferences": {},
  "deployedLinkReferences": {}
}